:100000000C945C000C9479000C9479000C947900A9
:100010000C9479000C9479000C9479000C9479007C
:100020000C9479000C9479000C9479000C9479006C
:100030000C9479000C9479000C9479000C9479005C
:100040000C94EC010C9479000C9479000C947900D8
:100050000C9479000C9479000C9479000C9479003C
:100060000C9479000C947900000000080002010053
:100070000003040700000000000000000000000072
:10008000250028002B0000000000240027002A0083
:10009000040404040404040402020202020203032E
:1000A0000303030301020408102040800102040836
:1000B000102001020408102011241FBECFEFD8E049
:1000C000DEBFCDBF11E0A0E0B1E0E2E6F6E002C0A5
:1000D00005900D92AE30B107D9F721E0AEE0B1E066
:1000E00001C01D92A731B207E1F70E9436020C94BD
:1000F0002F030C94000090E0FC01EC55FF4F24917D
:1001000080579F4FFC018491882399F090E0880FDD
:10011000991FFC01EA57FF4FA591B491FC01E458E7
:10012000FF4F859194918FB7F894EC91E22BEC936B
:100130008FBF089590E0FC01E859FF4F2491FC0126
:10014000EC55FF4F3491FC01E057FF4FE491EE2353
:10015000C9F0222339F0233001F1A8F4213019F13C
:10016000223029F1F0E0EE0FFF1FE458FF4FA59178
:10017000B4918FB7F894EC91611126C030953E236D
:100180003C938FBF08952730A9F02830C9F0243060
:1001900049F7809180008F7D03C0809180008F7728
:1001A00080938000DFCF84B58F7784BDDBCF84B5AB
:1001B0008F7DFBCF8091B0008F778093B000D2CF3E
:1001C0008091B0008F7DF9CF3E2BDACF3FB7F89406
:1001D0008091130190911401A0911501B091160125
:1001E00026B5A89B05C02F3F19F00196A11DB11D92
:1001F0003FBFBA2FA92F982F8827BC01CD01620FCE
:10020000711D811D911D42E0660F771F881F991F88
:100210004A95D1F708958F929F92AF92BF92CF9255
:10022000DF92EF92FF920E94E6006B017C0192E068
:10023000892E912CA12CB12C0E94E6006C197D090D
:100240008E099F09683E734081059105A8F328EE49
:10025000C20E23E0D21EE11CF11C8A9489288A2850
:100260008B2829F0812C912C54018394E5CFFF90A9
:10027000EF90DF90CF90BF90AF909F908F900895B8
:10028000CF92EF920F931F93CF93DF93162FD42F1C
:10029000C22F682F82E00E949A00612F83E00E94A3
:1002A0009A006D2F84E00E949A006C2F85E00E94D6
:1002B0009A00602F86E00E949A006E2D87E00E94CF
:1002C0009A006C2D88E0DF91CF911F910F91EF90F4
:1002D000CF900C949A00CF92DF92EF92FF920F93FF
:1002E0001F938A30910558F5FC01E758FE4F0C9496
:1002F000290383018D01A601B401BC01C101D00114
:10030000D701E401E701CC24C394D12CF12CE12CDA
:1003100010E000E030E020E054C0CC24C394D12CA5
:10032000EE24E394F12C01E010E021E030E050E015
:1003300040E070E060E081E090E00E9440011F91A9
:100340000F91FF90EF90DF90CF900895D12CC12CAA
:10035000EE24E394F12C10E000E030E020E041E0F6
:1003600050E070E060E019C0D12CC12CEE24E39481
:10037000F12C01E010E0CECFD12CC12CF12CE12CDE
:10038000D2CFD12CC12CF12CE12C01E010E030E0D7
:1003900020E050E040E061E070E090E080E0CDCF10
:1003A000D12CC12CF12CE12C10E000E0F0CFCC24BA
:1003B000C394D12CEE24E394F12C01E010E021E071
:1003C00030E050E040E0CDCFD12CC12C9FCFD12CDC
:1003D000C12CF12CE12CCDCF1F920F920FB60F92B2
:1003E00011242F933F938F939F93AF93BF9380914B
:1003F0000F0190911001A0911101B0911201309163
:100400000E0123E0230F2D3758F50196A11DB11DD4
:1004100020930E0180930F0190931001A09311017E
:10042000B09312018091130190911401A0911501D4
:10043000B09116010196A11DB11D809313019093F7
:100440001401A0931501B0931601BF91AF919F9134
:100450008F913F912F910F900FBE0F901F90189585
:1004600026E8230F0296A11DB11DD2CF789484B542
:10047000826084BD84B5816084BD85B5826085BDA0
:1004800085B5816085BD80916E00816080936E002E
:100490001092810080918100826080938100809120
:1004A00081008160809381008091800081608093D1
:1004B00080008091B10084608093B1008091B00091
:1004C00081608093B00080917A00846080937A008C
:1004D00080917A00826080937A0080917A008160B6
:1004E00080937A0080917A00806880937A001092DD
:1004F000C100C0E0D1E0888122960E947B0081E0AB
:10050000CE30D807C1F789E00E947B008AE00E94C4
:100510007B008BE00E947B008CE00E947B008DE0E2
:100520000E947B008EE00E947B00AA24AA94BA2C31
:10053000D12CC12C10E000E0D0E0C0E0712C612C87
:10054000F12CE12C82E5882E912C61E089E00E945B
:100550009A00C7010E946B010E940B0160E089E0D4
:100560000E949A0061E08AE00E949A00C3010E9402
:100570006B010E940B0160E08AE00E949A0061E03A
:100580008BE00E949A00CE010E946B010E940B0139
:1005900060E08BE00E949A0061E08CE00E949A008B
:1005A000C8010E946B010E940B0160E08CE00E9478
:1005B0009A0061E08DE00E949A00C6010E946B01E2
:1005C0000E940B0160E08DE00E949A0061E08EE0E5
:1005D0000E949A00C5010E946B010E940B0160E01D
:1005E0008EE00E949A0081E0881A910809F0ADCF50
:1005F0008FEFA81AB80A8AE0A816B1042CF08FEF82
:10060000C81AD80AB12CA12C86E0C816D10424F04F
:100610000F5F1F4FD12CC12C0A3011051CF0219601
:1006200010E000E0C630D1052CF08FEF681A780A90
:10063000D0E0C0E08AE0681671042CF08FEFE81A71
:10064000F80A712C612C82E0E816F1040CF078CFE6
:1006500079CFEE0FFF1F0590F491E02D0994F894E7
:02066000FFCFCA
:0E066200020003000400050006000700080067
:00000001FF
